:100000000C9463000C948B000C948B000C948B006C
:100010000C948B000C948B000C948B000C940B04B0
:100020000C948B000C948B000C948B000C942F057B
:100030000C948B000C948B000C948B000C948B0014
:100040000C94E5040C948B000C94B3040C948D0474
:100050000C948B000C948B000C948B000C948B00F4
:100060000C948B000C948B000000000024002700EF
:100070002A000000000023002600290000000008DC
:10008000000201000003040700000000000000005F
:10009000010204081020408001020408102001021F
:1000A0000408102000000000250028002B00040494
:1000B0000404040404040202020202020303030310
:1000C00003030200EB0511241FBECFEFD8E0DEBF13
:1000D000CDBF11E0A0E0B1E0E6E2F2E102C00590A0
:1000E0000D92A23DB107D9F722E0A2EDB1E001C027
:1000F0001D92A63BB207E1F710E0C3E6D0E004C0D2
:100100002197FE010E940B09C236D107C9F70E9450
:1001100048060C9411090C9400008F929F92AF92A4
:10012000BF92FF920F931F93CF93DF93F090B30290
:100130002BE02F1508F44CC02091B50208E512E021
:10014000021B110927FD1395000F111F000F111F2E
:100150002091B402C8E8D0E0C21BD10927FDD39595
:10016000CC0FDD1FCC0FDD1F4E010D2E000CAA0899
:10017000BB089801012E000C440B550B28193909B6
:100180004A095B09DC010E94C60824EB30E040E02C
:1001900050E00E949C08820E931EA41EB51E8C1671
:1001A0009D062CF0E801801691060CF4E4012297DC
:1001B000CC0FDD1F2FB7F8948F2D90E0FC01EE0FD0
:1001C000FF1FE80FF91FE257FD4FD283C1832FBFF6
:1001D000DF91CF911F910F91FF90BF90AF909F90B3
:1001E0008F900895AF92BF92CF92DF92EF92FF92DD
:1001F0000F931F93CF93DF936C017B018B01040F4F
:10020000151FEB015E01AE18BF08C017D10759F0EA
:100210006991D601ED91FC910190F081E02DC6012C
:100220000995892B79F7C501DF91CF911F910F9126
:10023000FF90EF90DF90CF90BF90AF900895FC01BA
:10024000538D448D252F30E0842F90E0821B930B3B
:10025000541710F0CF96089501970895FC01918DE1
:10026000828D981761F0A28DAE0FBF2FB11D5D96E4
:100270008C91928D9F5F9F73928F90E008958FEF86
:100280009FEF0895FC01918D828D981731F0828D3A
:10029000E80FF11D858D90E008958FEF9FEF089591
:1002A000FC01918D228D892F90E0805C9F4F821BF5
:1002B00091098F739927089581EF91E00E94500171
:1002C00021E0892B09F420E0822F089580E090E05E
:1002D000892B29F00E945C0181110C940000089583
:1002E000FC01A48DA80FB92FB11DA35ABF4F2C91AB
:1002F000848D90E001968F739927848FA689B789A2
:100300002C93A089B1898C91837080648C93938D98
:10031000848D981306C00288F389E02D80818F7D3B
:1003200080830895EF92FF920F931F93CF93DF93F3
:10033000EC0181E0888F9B8D8C8D98131AC0E88921
:10034000F989808185FF15C09FB7F894EE89FF89F0
:100350006083E889F98980818370806480839FBF8E
:1003600081E090E0DF91CF911F910F91FF90EF908E
:100370000895F62E0B8D10E00F5F1F4F0F7311279E
:10038000E02E8C8D8E110CC00FB607FCFACFE889D9
:10039000F989808185FFF5CFCE010E947001F1CFF0
:1003A000EB8DEC0FFD2FF11DE35AFF4FF0829FB74D
:1003B000F8940B8FEA89FB8980818062CFCFCF933D
:1003C000DF93EC01888D8823B9F0AA89BB89E8897D
:1003D000F9898C9185FD03C0808186FD0DC00FB623
:1003E00007FCF7CF8C9185FFF2CF808185FFEDCFA1
:1003F000CE010E947001E9CFDF91CF910895833043
:1004000081F028F4813099F08230A9F00895873086
:10041000A9F08830C9F08430B1F4809180008F7DDC
:1004200003C0809180008F7780938000089584B509
:100430008F7784BD089584B58F7DFBCF8091B00008
:100440008F778093B00008958091B0008F7DF9CFB1
:10045000CF93DF93282F30E0F901E458FF4F8491C8
:10046000F901E057FF4FD491F901E255FF4FC491D4
:10047000CC23A1F081110E94FF01EC2FF0E0EE0FE0
:10048000FF1FEE58FF4FA591B491EC91ED2381E051
:1004900090E009F480E0DF91CF91089580E090E052
:1004A000FACF1F93CF93DF93282F30E0F901E45860
:1004B000FF4F8491F901E057FF4FD491F901E255C4
:1004C000FF4FC491CC23A9F0162F81110E94FF0188
:1004D000EC2FF0E0EE0FFF1FEC55FF4FA591B4910C
:1004E0008FB7F894EC91111108C0D095DE23DC93FE
:1004F0008FBFDF91CF911F910895DE2BF8CFCF935F
:10050000DF9390E0FC01E057FF4F249182559F4F0D
:10051000FC0184918823D1F090E0880F991FFC01A1
:10052000E859FF4FA591B491FC01EC55FF4FC591DF
:10053000D49161110EC09FB7F8948C91E22FE09591
:100540008E238C932881E223E8839FBFDF91CF9194
:1005500008958FB7F894EC91E22BEC938FBFF6CF10
:10056000CF9390910001891721F09F3F51F1CF91D6
:100570000895E2ECF0E0C491C7FDF9CF61E00E947C
:100580007F02CC2309F495C0C23009F0A9C0809144
:10059000B100887F83608093B1008CE78093B300C3
:1005A0008FEF9FEFDC018093E5019093E601A0932C
:1005B000E701B093E8018091700082608093700041
:1005C000D6CF80930001E2ECF0E0C491CF3F79F206
:1005D000C13039F148F0C23009F445C0C7FDC7CF7A
:1005E00061E00E947F02D0CF14BC15BC94B592602C
:1005F00094BD95B5916095BD282F30E0F901E25585
:10060000FF4FE491F0E0EE0FFF1FEC55FF4F4591D7
:100610005491F901E057FF4FE491E093E401C0E009
:10062000ADCF10928000109281009091810098606F
:100630009093810090918100916090938100282F88
:1006400030E0F901E255FF4FE491F0E0EE0FFF1FBB
:10065000EC55FF4F45915491F901E057FF4FE4915C
:10066000E093E3018BCF1092B0001092B100909113
:10067000B00092609093B0009091B100916090931F
:10068000B100282F30E0F901E255FF4FE491F0E08E
:10069000EE0FFF1FEC55FF4F459154915093E2012F
:1006A0004093E101F901E057FF4FE491E093E0014D
:1006B00065CF85B5887F836085BD8DE387BD8FEF6E
:1006C0009FEFDC018093ED019093EE01A093EF0189
:1006D000B093F00180916E00826080936E0047CFEE
:1006E000C130E9F480918100887F8160809381002E
:1006F0008FE99FE090938900809388008FEF9FEFB0
:10070000DC018093E9019093EA01A093EB01B0939F
:10071000EC0180916F00826080936F0028CFC2301F
:1007200021F0C11124CF8FE9C9CF8FE937CF3FB76F
:10073000F8948091D8019091D901A091DA01B091FB
:10074000DB0126B5A89B05C02F3F19F00196A11D1E
:10075000B11D3FBFBA2FA92F982F8827BC01CD010B
:10076000620F711D811D911D42E0660F771F881F6A
:10077000991F4A95D1F708958F929F92AF92BF9299
:10078000CF92DF92EF92FF924B015C010E949703A0
:100790006B017C010E9497036C197D098E099F09EA
:1007A000683E734081059105A8F321E0821A910803
:1007B000A108B10888EEC80E83E0D81EE11CF11C28
:1007C00081149104A104B10429F7FF90EF90DF9008
:1007D000CF90BF90AF909F908F900895CF93DF936D
:1007E000FC0101900020E9F73197AF01481B590B3C
:1007F000BC0181EF91E00E94F200EC0142E050E088
:1008000063E171E081EF91E00E94F2008C0F9D1F87
:10081000DF91CF9108951F920F920FB60F9211247E
:100820002F933F934F935F936F937F938F939F93F8
:10083000AF93BF93EF93FF938091E5019091E60111
:10084000A091E701B091E801892B8A2B8B2BD1F184
:100850009091E001E091E101F091E201808189272E
:1008600080838091E5019091E601A091E701B0912C
:10087000E801181619061A061B069CF48091E5017A
:100880009091E601A091E701B091E8010197A109DB
:10089000B1098093E5019093E601A093E701B0933D
:1008A000E801FF91EF91BF91AF919F918F917F915F
:1008B0006F915F914F913F912F910F900FBE0F90CD
:1008C0001F90189580910001E2ECF0E0E4919FEF19
:1008D00090930001E13051F030F0E23069F060E0D7
:1008E0000E945102DECF10926E00F9CF90916F00FE
:1008F0009D7F90936F00F3CF909170009D7F9093B8
:10090000700091E09093B0009091B100987F946056
:100910009093B1001092B300E2CF1F920F920FB6E6
:100920000F9211242F933F934F935F936F937F9375
:100930008F939F93AF93BF93EF93FF9381EF91E0DA
:100940000E947001FF91EF91BF91AF919F918F91A4
:100950007F916F915F914F913F912F910F900FBEBB
:100960000F901F9018951F920F920FB60F9211249F
:100970002F938F939F93EF93FF93E0910102F09158
:1009800002028081E0910702F091080282FD1BC003
:10099000908180910A028F5F8F7320910B028217E2
:1009A00041F0E0910A02F0E0EF50FE4F958F809306
:1009B0000A02FF91EF919F918F912F910F900FBE9F
:1009C0000F901F9018958081F4CF1F920F920FB651
:1009D0000F9211242F933F938F939F93AF93BF93C5
:1009E0008091D4019091D501A091D601B091D70109
:1009F0003091D30123E0230F2D3758F50196A11D27
:100A0000B11D2093D3018093D4019093D501A0937D
:100A1000D601B093D7018091D8019091D901A091CE
:100A2000DA01B091DB010196A11DB11D8093D801BF
:100A30009093D901A093DA01B093DB01BF91AF91FC
:100A40009F918F913F912F910F900FBE0F901F900C
:100A5000189526E8230F0296A11DB11DD2CF1F9233
:100A60000F920FB60F9211242F933F934F935F93E2
:100A70006F937F938F939F93AF93BF93CF93DF93A6
:100A8000EF93FF938091D201C091B202D0E087FF33
:100A900024C010928500109284008091D2018F5F53
:100AA0008093D2018091D201082E000C990B8C17F3
:100AB0009D0724F48091D2018C30C4F18091840090
:100AC00090918500049680349C4908F47AC0809106
:100AD000840090918500049676C08091D201082E02
:100AE000000C990B8C179D07C4F6E091D2018E2F54
:100AF000EE0F990BFC01EE0FFF1FE80FF91FE257F5
:100B0000FD4F808186FFC9CFE091D2018E2FEE0F7D
:100B1000990BFC01EE0FFF1FE80FF91FE257FD4F85
:100B2000808160E08F730E945102B7CF20918400D2
:100B300030918500E091D2018E2FEE0F990BFC01D0
:100B4000EE0FFF1FE80FF91FE257FD4F81819281E1
:100B5000820F931F9093890080938800E091D201C7
:100B60008E2FEE0F990BFC01EE0FFF1FE80FF91F00
:100B7000E257FD4F808186FF11C0E091D2018E2F98
:100B8000EE0F990BFC01EE0FFF1FE80FF91FE25764
:100B9000FD4F808161E08F730E945102FF91EF91C0
:100BA000DF91CF91BF91AF919F918F917F916F9185
:100BB0005F914F913F912F910F900FBE0F901F901B
:100BC000189580E49CE990938900809388008FEFCA
:100BD0008093D201E3CF1092F4011092F30188EEDA
:100BE00093E0A0E0B0E08093F5019093F601A0932C
:100BF000F701B093F80185E091E09093F2018093C2
:100C0000F10185EC90E09093FE018093FD0184EC6E
:100C100090E0909300028093FF0180EC90E090932D
:100C200002028093010281EC90E090930402809391
:100C3000030282EC90E0909306028093050286EC1A
:100C400090E0909308028093070210920A0210929B
:100C50000B0210920C0210920D028091B2028C30A5
:100C600098F491E0980F9093B2028093B30290E0D1
:100C7000FC01EE0FFF1FE80FF91FE257FD4F88EB55
:100C80009BE09283818308958FEF8093B302089550
:100C9000789484B5826084BD84B5816084BD85B557
:100CA000826085BD85B5816085BD80916E00816063
:100CB00080936E0010928100809181008260809309
:100CC000810080918100816080938100809180000B
:100CD0008160809380008091B10084608093B10036
:100CE0008091B00081608093B00080917A00846030
:100CF00080937A0080917A00826080937A0080915C
:100D00007A00816080937A0080917A008068809375
:100D10007A001092C100E0910102F091020282E09B
:100D20008083E091FD01F091FE011082E091FF01CE
:100D3000F09100028FEC808310920902E09105028D
:100D4000F091060286E08083E0910302F0910402B4
:100D5000808180618083E0910302F09104028081B0
:100D600088608083E0910302F091040280818068B2
:100D70008083E0910302F091040280818F7D808363
:100D800060E085E00E947F0261E084E00E947F02D3
:100D900060E088E00E947F0260E087E00E947F02BE
:100DA00060E086E00E947F0261E08AE00E947F02AC
:100DB00061E08BE00E947F0261E08CE00E947F0294
:100DC0008091B3028C3008F051C061E089E00E944C
:100DD0007F028091B302282F30E0F901EE0FFF1F50
:100DE000E20FF31FE257FD4F9081907C9960908352
:100DF0001092B4021092B5022CE0622F0E94FF08FC
:100E0000829FB001112430E020E0AB01420F531F5C
:100E1000FA01EE0FFF1FE40FF51FE257FD4F90811F
:100E200096FD16C02F5F3F4F2C30310571F78111B1
:100E30000FC01092800082E08093810010928500A4
:100E400010928400B19A80916F00826080936F004D
:100E5000E091B3028E2F90E0FC01EE0FFF1FE80F30
:100E6000F91FE257FD4F80818064808390E080E02D
:100E70000E948D0000E010E0EE24E394F12C92E05B
:100E8000C92ED12C23E0A22EB12C85E00E9428028D
:100E9000019741F486E191E00E94EE038AE590E03B
:100EA0000E948D0088E00E942802892B09F05EC014
:100EB00085E291E00E94EE038091DE019091DF01D6
:100EC00001969093DF018093DE01F092DD01E092C4
:100ED000DC0161E08AE00E94510260ED77E080E091
:100EE00090E00E94BC0360E08AE00E94510287E02B
:100EF0000E942802892B09F048C089E391E00E94F2
:100F0000EE03D092DD01C092DC0161E08BE00E9433
:100F1000510260ED77E080E090E00E94BC0360E069
:100F20008BE00E94510290E080E00E948D008DE4F1
:100F300091E00E94EE0386E00E942802892BB1F422
:100F400089E591E00E94EE03B092DD01A092DC0100
:100F500061E08CE00E94510260ED77E080E090E07B
:100F60000E94BC0360E08CE00E9451028091DC0191
:100F70009091DD018230910509F475C083309105AF
:100F800009F4CFC0019709F062C08091DE01909111
:100F9000DF0102970CF457C084E00E94B00260EDBC
:100FA00077E080E090E00E94BC03CAE0D0E08DE6EC
:100FB00091E00E94EE0361E08CE00E94510264E641
:100FC00070E080E090E00E94BC0360E08CE00E9452
:100FD000510264E670E080E090E00E94BC0361E0B2
:100FE0008BE00E94510264E670E080E090E00E9495
:100FF000BC0360E08BE00E94510264E670E080E098
:1010000090E00E94BC0361E08AE00E94510264E625
:1010100070E080E090E00E94BC0360E08AE00E9403
:10102000510264E670E080E090E00E94BC0384E03E
:101030000E94B00268EB7BE080E090E00E94BC037D
:10104000219709F0B4CF80E891E00E94EE030115EA
:10105000110509F41ACF0E945C01882309F415CF09
:101060000E94000012CF8091DE019091DF01029773
:1010700054F384E00E94B00260ED77E080E090E0FD
:101080000E94BC03CAE0D0E08DE691E00E94EE032E
:1010900061E08CE00E94510264E670E080E090E044
:1010A0000E94BC0360E08CE00E94510264E670E0A4
:1010B00080E090E00E94BC0361E08BE00E9451025E
:1010C00064E670E080E090E00E94BC0360E08BE0AA
:1010D0000E94510264E670E080E090E00E94BC0350
:1010E00061E08AE00E94510264E670E080E090E0F6
:1010F0000E94BC0360E08AE00E94510264E670E056
:1011000080E090E00E94BC0384E00E94B00268EBA3
:101110007BE080E090E00E94BC03219709F0B4CF0F
:1011200092CF86E00E942802019719F483EA91E0A9
:101130008CCF8BEB91E089CF052E97FB1EF40094AA
:101140000E94B30857FD07D00E94CE0807FC03D0C9
:101150004EF40C94B30850954095309521953F4F2F
:101160004F4F5F4F089590958095709561957F4F93
:101170008F4F9F4F08950E94F008A59F900DB49F38
:10118000900DA49F800D911D11240895B7FF0C941C
:10119000BB080E94BB08821B930B0895A1E21A2E84
:1011A000AA1BBB1BFD010DC0AA1FBB1FEE1FFF1F0B
:1011B000A217B307E407F50720F0A21BB30BE40B5B
:1011C000F50B661F771F881F991F1A9469F76095A2
:1011D0007095809590959B01AC01BD01CF0108955C
:1011E000A29FB001B39FC001A39F700D811D112468
:1011F000911DB29F700D811D1124911D0895991BA1
:1012000079E004C0991F961708F0961B881F7A95FD
:10121000C9F780950895EE0FFF1F0590F491E02D1A
:061220000994F894FFCFD1
:10122600FF000000009201F2001F01DF0150012EB5
:101236000142010D0A00446F6F72206973206F70BE
:10124600656E656400506173732031737420636842
:1012560065636B706F696E74005061737320326ED4
:101266006420636865636B706F696E7400446F6FAA
:101276007220636C6F736564005061737320337200
:101286006420636865636B706F696E740050617289
:1012960063656C20697320696E736563757265009A
:1012A60050617263656C206973206E6F7420706F75
:1012B600736974696F6E656420636F7272656374B7
:1012C6006C790050617263656C2068617320626599
:1012D600656E2072656D6F76656400506172636538
:1012E6006C20706C616365642070726F7065726CDF
:0212F60079007D
:00000001FF
